:100000000C9462000C948A000C948A000C948A0070
:100010000C948A000C948A000C948A000C948A0038
:100020000C948A000C948A000C948A000C948A0028
:100030000C948A000C948A000C948A000C948A0018
:100040000C9469030C948A000C94D9030C94B303A8
:100050000C948A000C948A000C948A000C948A00F8
:100060000C948A000C948A000000000024002700F1
:100070002A000000000023002600290000000000E4
:10008000250028002B0004040404040404040202D4
:100090000202020203030303030301020408102007
:1000A0004080010204081020010204081020000012
:1000B0000008000201000003040700000000000027
:1000C00000000B0411241FBECFEFD8E0DEBFCDBF70
:1000D00011E0A0E0B1E0E6E9FCE002C005900D927D
:1000E000AC31B107D9F722E0ACE1B1E001C01D921B
:1000F000AF33B207E1F710E0C2E6D0E004C02197C9
:10010000FE010E943106C136D107C9F70E944A0498
:100110000C9449060C940000833081F028F481305F
:1001200099F08230A9F008958730A9F08830C9F09D
:100130008430B1F4809180008F7D03C08091800075
:100140008F7780938000089584B58F7784BD08955C
:1001500084B58F7DFBCF8091B0008F778093B00006
:1001600008958091B0008F7DF9CF1F93CF93DF93D7
:10017000EBEBF0E09491E7EAF0E0D491E3E9F0E012
:10018000C491CC23B9F0182F992319F0892F0E941C
:100190008C00EC2FF0E0EE0FFF1FE458FF4FA5910D
:1001A000B4918FB7F894EC91111108C0D095DE236B
:1001B000DC938FBFDF91CF911F910895DE2BF8CF95
:1001C000CF93DF93E0EBF0E08491ECE9F0E0D491A1
:1001D000E8E8F0E0C491CC23A1F081110E948C00EA
:1001E000EC2FF0E0EE0FFF1FEE58FF4FA591B491FA
:1001F000EC91ED2381E090E009F480E0DF91CF9174
:10020000089580E090E0FACF3FB7F89480912801FC
:1002100090912901A0912A01B0912B0126B5A89BAC
:1002200005C02F3F19F00196A11DB11D3FBFBA2F88
:10023000A92F982F8827BC01CD01620F711D811D48
:10024000911D43E0660F771F881F991F4A95D1F7CC
:100250000895AF92BF92CF92DF92EF92FF920F93E9
:100260001F93CF93DF938B01D0E0C0E001975C0137
:100270008091350290913602DC01ED91FC91008471
:10028000F185E02D0995A816B906ACF00E9404018D
:100290006B017C010E9404016C197D098E099F0984
:1002A000683E734081059105A8F321960C171D0740
:1002B000F9F680E001C081E0DF91CF911F910F91AD
:1002C000FF90EF90DF90CF90BF90AF900895AF92E6
:1002D000BF92CF92DF92EF92FF920F931F93CF9333
:1002E000DF936C017B018B01040F151FEB015E0195
:1002F000AE18BF08C017D10759F06991D601ED912A
:10030000FC910190F081E02DC6010995892B79F7C8
:10031000C501DF91CF911F910F91FF90EF90DF907A
:10032000CF90BF90AF900895FC01538D448D252F41
:1003300030E0842F90E0821B930B541710F0CF967F
:10034000089501970895FC01918D828D981761F0B1
:10035000A28DAE0FBF2FB11D5D968C91928D9F5FC8
:100360009F73928F90E008958FEF9FEF0895FC01A7
:10037000918D828D981731F0828DE80FF11D858D5A
:1003800090E008958FEF9FEF0895FC01918D228DED
:10039000892F90E0805C9F4F821B91098F73992772
:1003A000089584E391E00E94C50121E0892B09F4BE
:1003B00020E0822F089580E090E0892B29F00E94B0
:1003C000D10181110C9400000895FC01A48DA80FA7
:1003D000B92FB11DA35ABF4F2C91848D90E0019687
:1003E0008F739927848FA689B7892C93A089B189A7
:1003F0008C91837080648C93938D848D981306C048
:100400000288F389E02D80818F7D80830895EF92AB
:10041000FF920F931F93CF93DF93EC0181E0888FBE
:100420009B8D8C8D98131AC0E889F989808185FF8E
:1004300015C09FB7F894EE89FF896083E889F98930
:1004400080818370806480839FBF81E090E0DF9132
:10045000CF911F910F91FF90EF900895F62E0B8D85
:1004600010E00F5F1F4F0F731127E02E8C8D8E1140
:100470000CC00FB607FCFACFE889F989808185FFA7
:10048000F5CFCE010E94E501F1CFEB8DEC0FFD2FF2
:10049000F11DE35AFF4FF0829FB7F8940B8FEA8962
:1004A000FB8980818062CFCFCF93DF93EC01888D71
:1004B0008823B9F0AA89BB89E889F9898C9185FDDF
:1004C00003C0808186FD0DC00FB607FCF7CF8C916D
:1004D00085FFF2CF808185FFEDCFCE010E94E5013F
:1004E000E9CFDF91CF910895DC01ED91FC9101906E
:1004F000F081E02D09948F929F92AF92BF92EF927C
:10050000FF920F931F93CF93DF93CDB7DEB7E4979E
:100510000FB6F894DEBF0FBECDBF8FB7F8948090B2
:10052000240190902501A0902601B09027018FBF53
:10053000FF24F39410E000E00E94E000892B09F40E
:10054000F12C0E94E000019731F4F11002C00F5F1E
:100550001F4FFF24F3942FB7F894809124019091BA
:100560002501A0912601B09127012FBF8819990973
:10057000AA09BB0981329E44A105B105E8F27801C0
:10058000EE0CFF1CE00EF11EF0921E01E0921D0128
:1005900080911C01882309F483C010921C0180E023
:1005A0000E94B50062E171E08E010F5F1F4FC8012C
:1005B0000E9442064AE0BE01675D7F4FC7010E946C
:1005C000FC05BE01675D7F4FC8010E943706F80138
:1005D00001900020E9F73197E01BF10B87E0809351
:1005E0001F01E093200110922101109222018091BD
:1005F0001F0190912001A0912101B091220189ABAE
:100600009AABABABBCAB6CEF7FEF809135029091B6
:1006100036020E9474027E0181E3E80EF11C5E0145
:10062000A5E3AA0EB11C8091350290913602F70124
:1006300061917F01DC01ED91FC910190F081E02D51
:100640000995AE14BF0479F76DEF7FEF8091350205
:10065000909136020E9474026EEF7FEF8091350216
:10066000909136020E947402F12C2F2D30E0F80197
:1006700001900020E9F73197E01BF10B80913502E2
:10068000909136022E173F0778F4200F311FF901A1
:100690006081062E000C770B0E947402F394E5CF64
:1006A00081E080931C017CCF6FEF7FEF0E9474028A
:1006B000E4960FB6F894DEBF0FBECDBFDF91CF91A9
:1006C0001F910F91FF90EF90BF90AF909F908F90F0
:1006D00008951F920F920FB60F9211242F933F93FC
:1006E0008F939F93AF93BF938091240190912501A5
:1006F000A0912601B09127013091230126E0230F1C
:100700002D3758F50296A11DB11D2093230180932A
:10071000240190932501A0932601B0932701809195
:10072000280190912901A0912A01B0912B010196F5
:10073000A11DB11D8093280190932901A0932A0146
:10074000B0932B01BF91AF919F918F913F912F91CA
:100750000F900FBE0F901F90189529E8230F039656
:10076000A11DB11DD2CF1F920F920FB60F9211246F
:100770002F933F934F935F936F937F938F939F93A9
:10078000AF93BF93EF93FF9384E391E00E94E50161
:10079000FF91EF91BF91AF919F918F917F916F9159
:1007A0005F914F913F912F910F900FBE0F901F902F
:1007B00018951F920F920FB60F9211242F938F93BB
:1007C0009F93EF93FF93E0914401F0914501808165
:1007D000E0914A01F0914B0182FD1BC09081809114
:1007E0004D018F5F8F7320914E01821741F0E09190
:1007F0004D01F0E0EC5CFE4F958F80934D01FF9131
:10080000EF919F918F912F910F900FBE0F901F909E
:1008100018958081F4CFE4E3F1E01382128288EE30
:1008200093E0A0E0B0E084839583A683B78384E05F
:1008300091E09183808385EC90E09587848784ECB8
:1008400090E09787868780EC90E0918B808B81EC9D
:1008500090E0938B828B82EC90E0958B848B86EC7E
:1008600090E0978B868B118E128E138E148EF093E0
:100870003602E0933502ECE2F1E089E9808387E11A
:10088000818384E3828381E08383148215821682CC
:1008900017820895CF93DF93CDB7DEB72C970FB6AD
:1008A000F894DEBF0FBECDBF789484B5826084BD5E
:1008B00084B5816084BD85B5826085BD85B5816064
:1008C00085BD80916E00816080936E0010928100E2
:1008D000809181008260809381008091810081609D
:1008E000809381008091800081608093800080915E
:1008F000B10084608093B1008091B00081608093EA
:10090000B00080917A00846080937A0080917A00B0
:10091000826080937A0080917A008E7F80937A0043
:1009200080917A00806880937A001092C100E091F3
:100930004401F091450182E08083E0914001F09113
:1009400041011082E0914201F091430180E18083F6
:1009500010924C01E0914801F091490186E08083BA
:10096000E0914601F0914701808180618083E091B0
:100970004601F0914701808188608083E0914601C3
:10098000F0914701808180688083E0914601F09179
:10099000470180818F7D8083E7EAF0E02491E3E9DD
:1009A000F0E08491882399F090E0880F991FFC0172
:1009B000E859FF4FA591B491FC01E458FF4F859190
:1009C00094918FB7F894EC91E22BEC938FBFECE904
:1009D000F0E02491E8E8F0E084918823C9F090E009
:1009E000880F991FFC01E859FF4F45915491FC0174
:1009F000E458FF4FA591B4919FB7F894FA01308164
:100A0000822F809583238083EC91E22BEC939FBF10
:100A1000809130018260809330018BE792E0909367
:100A20003A02809339026E01FDE0CF0ED11C90E0B6
:100A3000E92E90E0F92E8091350290913602DC018A
:100A4000ED91FC910084F185E02D0995892B09F445
:100A500050C08091350290913602DC01ED91FC91FD
:100A60000284F385E02D09958C3F09F042C064E6CD
:100A700070E085E090E00E9429018823D1F18E0189
:100A8000075F1F4F58018091350290913602DC01BB
:100A9000ED91FC910284F385E02D0995F801819395
:100AA0008F01EC15FD0579F78091350290913602A2
:100AB000DC01ED91FC910284F385E02D0995898597
:100AC0003A852B859C8580931F01309320012093CC
:100AD000210190932201833009F476C0B0F4813073
:100AE00009F446C0E0913702F0913802823009F4EF
:100AF0006FC0E114F10409F49ECF0E94D101882354
:100B000009F499CF0E94000096CF843009F462C0A6
:100B1000853079F780902001082D10E062E370E0C5
:100B2000C80102960E942901882319F38091350299
:100B300090913602DC01ED91FC910284F385E02D69
:100B4000099581EDA82E81E0B82E912C8091350277
:100B500090913602DC01ED91FC910284F385E02D49
:100B60008914E9F10995F50181935F019394EECF22
:100B700088E0ECE2F1E0DE01119601900D928A9599
:100B8000E1F76EEF7FEF80913502909136020E947F
:100B900074028E010F5F1F4FF80161918F01062EC5
:100BA000000C770B80913502909136020E947402FE
:100BB000A016B10689F76FEF7FEF80913502909113
:100BC00036020E94740295CFE0913902F0913A0208
:100BD00009958FCFE0913B02F0913C02F9CF099546
:100BE000F801EF52FE4F1082E0913D02F0913E027B
:100BF00081ED91E009957DCFBB274A3031F49923EF
:100C000022F4BDE2909581959F4F0C940806BB2776
:100C1000FB015527AA27880F991FAA1FA41710F0B8
:100C2000A41B83955051B9F7A05DAA3308F0A95DC4
:100C3000A193009779F7B111B1931192CB010C9464
:100C40002106DC01FC01672F71917723E1F73297D0
:100C500004C07C916D9370836291AE17BF07C8F397
:100C60000895EE0FFF1F0590F491E02D0994FB010C
:100C7000DC010D900020E9F7119701900D92002002
:100C8000E1F70895FB01DC0101900D920020E1F7EE
:060C90000895F894FFCF67
:100C9600000000000702670194015402C501A30188
:0C0CA600B701436F756E74657231200059
:00000001FF
